{
  "abi": [
    {
      "type": "constructor",
      "inputs": [
        {
          "name": "_gamaTokenAddress",
          "type": "address",
          "internalType": "address"
        },
        {
          "name": "vrfCoordinator",
          "type": "address",
          "internalType": "address"
        },
        {
          "name": "subscriptionId",
          "type": "uint64",
          "internalType": "uint64"
        },
        {
          "name": "keyHash",
          "type": "bytes32",
          "internalType": "bytes32"
        },
        {
          "name": "_callbackGasLimit",
          "type": "uint32",
          "internalType": "uint32"
        },
        {
          "name": "_requestConfirmations",
          "type": "uint16",
          "internalType": "uint16"
        },
        {
          "name": "_numWords",
          "type": "uint8",
          "internalType": "uint8"
        }
      ],
      "stateMutability": "nonpayable"
    },
    {
      "type": "function",
      "name": "BLACK_BET",
      "inputs": [],
      "outputs": [
        {
          "name": "",
          "type": "uint8",
          "internalType": "uint8"
        }
      ],
      "stateMutability": "view"
    },
    {
      "type": "function",
      "name": "BURNER_ROLE",
      "inputs": [],
      "outputs": [
        {
          "name": "",
          "type": "bytes32",
          "internalType": "bytes32"
        }
      ],
      "stateMutability": "view"
    },
    {
      "type": "function",
      "name": "COLUMN_BET_FIRST",
      "inputs": [],
      "outputs": [
        {
          "name": "",
          "type": "uint8",
          "internalType": "uint8"
        }
      ],
      "stateMutability": "view"
    },
    {
      "type": "function",
      "name": "COLUMN_BET_SECOND",
      "inputs": [],
      "outputs": [
        {
          "name": "",
          "type": "uint8",
          "internalType": "uint8"
        }
      ],
      "stateMutability": "view"
    },
    {
      "type": "function",
      "name": "COLUMN_BET_THIRD",
      "inputs": [],
      "outputs": [
        {
          "name": "",
          "type": "uint8",
          "internalType": "uint8"
        }
      ],
      "stateMutability": "view"
    },
    {
      "type": "function",
      "name": "DENOMINATOR",
      "inputs": [],
      "outputs": [
        {
          "name": "",
          "type": "uint256",
          "internalType": "uint256"
        }
      ],
      "stateMutability": "view"
    },
    {
      "type": "function",
      "name": "DOZEN_BET_FIRST",
      "inputs": [],
      "outputs": [
        {
          "name": "",
          "type": "uint8",
          "internalType": "uint8"
        }
      ],
      "stateMutability": "view"
    },
    {
      "type": "function",
      "name": "DOZEN_BET_SECOND",
      "inputs": [],
      "outputs": [
        {
          "name": "",
          "type": "uint8",
          "internalType": "uint8"
        }
      ],
      "stateMutability": "view"
    },
    {
      "type": "function",
      "name": "DOZEN_BET_THIRD",
      "inputs": [],
      "outputs": [
        {
          "name": "",
          "type": "uint8",
          "internalType": "uint8"
        }
      ],
      "stateMutability": "view"
    },
    {
      "type": "function",
      "name": "EVEN_BET",
      "inputs": [],
      "outputs": [
        {
          "name": "",
          "type": "uint8",
          "internalType": "uint8"
        }
      ],
      "stateMutability": "view"
    },
    {
      "type": "function",
      "name": "HIGH_BET",
      "inputs": [],
      "outputs": [
        {
          "name": "",
          "type": "uint8",
          "internalType": "uint8"
        }
      ],
      "stateMutability": "view"
    },
    {
      "type": "function",
      "name": "LOW_BET",
      "inputs": [],
      "outputs": [
        {
          "name": "",
          "type": "uint8",
          "internalType": "uint8"
        }
      ],
      "stateMutability": "view"
    },
    {
      "type": "function",
      "name": "MAX_BET_AMOUNT",
      "inputs": [],
      "outputs": [
        {
          "name": "",
          "type": "uint256",
          "internalType": "uint256"
        }
      ],
      "stateMutability": "view"
    },
    {
      "type": "function",
      "name": "MAX_HISTORY_SIZE",
      "inputs": [],
      "outputs": [
        {
          "name": "",
          "type": "uint256",
          "internalType": "uint256"
        }
      ],
      "stateMutability": "view"
    },
    {
      "type": "function",
      "name": "MAX_NUMBER",
      "inputs": [],
      "outputs": [
        {
          "name": "",
          "type": "uint8",
          "internalType": "uint8"
        }
      ],
      "stateMutability": "view"
    },
    {
      "type": "function",
      "name": "MAX_POSSIBLE_PAYOUT",
      "inputs": [],
      "outputs": [
        {
          "name": "",
          "type": "uint256",
          "internalType": "uint256"
        }
      ],
      "stateMutability": "view"
    },
    {
      "type": "function",
      "name": "MAX_TOTAL_BET_AMOUNT",
      "inputs": [],
      "outputs": [
        {
          "name": "",
          "type": "uint256",
          "internalType": "uint256"
        }
      ],
      "stateMutability": "view"
    },
    {
      "type": "function",
      "name": "MINTER_ROLE",
      "inputs": [],
      "outputs": [
        {
          "name": "",
          "type": "bytes32",
          "internalType": "bytes32"
        }
      ],
      "stateMutability": "view"
    },
    {
      "type": "function",
      "name": "ODD_BET",
      "inputs": [],
      "outputs": [
        {
          "name": "",
          "type": "uint8",
          "internalType": "uint8"
        }
      ],
      "stateMutability": "view"
    },
    {
      "type": "function",
      "name": "RED_BET",
      "inputs": [],
      "outputs": [
        {
          "name": "",
          "type": "uint8",
          "internalType": "uint8"
        }
      ],
      "stateMutability": "view"
    },
    {
      "type": "function",
      "name": "RESULT_FORCE_STOPPED",
      "inputs": [],
      "outputs": [
        {
          "name": "",
          "type": "uint8",
          "internalType": "uint8"
        }
      ],
      "stateMutability": "view"
    },
    {
      "type": "function",
      "name": "RESULT_RECOVERED",
      "inputs": [],
      "outputs": [
        {
          "name": "",
          "type": "uint8",
          "internalType": "uint8"
        }
      ],
      "stateMutability": "view"
    },
    {
      "type": "function",
      "name": "STRAIGHT_BET",
      "inputs": [],
      "outputs": [
        {
          "name": "",
          "type": "uint8",
          "internalType": "uint8"
        }
      ],
      "stateMutability": "view"
    },
    {
      "type": "function",
      "name": "canStartNewGame",
      "inputs": [
        {
          "name": "player",
          "type": "address",
          "internalType": "address"
        }
      ],
      "outputs": [
        {
          "name": "",
          "type": "bool",
          "internalType": "bool"
        }
      ],
      "stateMutability": "view"
    },
    {
      "type": "function",
      "name": "forceStopGame",
      "inputs": [
        {
          "name": "player",
          "type": "address",
          "internalType": "address"
        }
      ],
      "outputs": [],
      "stateMutability": "nonpayable"
    },
    {
      "type": "function",
      "name": "gamaToken",
      "inputs": [],
      "outputs": [
        {
          "name": "",
          "type": "address",
          "internalType": "contract IERC20"
        }
      ],
      "stateMutability": "view"
    },
    {
      "type": "function",
      "name": "getAllBetTypes",
      "inputs": [],
      "outputs": [
        {
          "name": "betTypeIds",
          "type": "uint8[]",
          "internalType": "uint8[]"
        },
        {
          "name": "names",
          "type": "string[]",
          "internalType": "string[]"
        },
        {
          "name": "requiresNumbers",
          "type": "bool[]",
          "internalType": "bool[]"
        },
        {
          "name": "payoutMultipliers",
          "type": "uint256[]",
          "internalType": "uint256[]"
        }
      ],
      "stateMutability": "pure"
    },
    {
      "type": "function",
      "name": "getBetDetails",
      "inputs": [
        {
          "name": "player",
          "type": "address",
          "internalType": "address"
        },
        {
          "name": "betIndex",
          "type": "uint256",
          "internalType": "uint256"
        }
      ],
      "outputs": [
        {
          "name": "timestamp",
          "type": "uint256",
          "internalType": "uint256"
        },
        {
          "name": "betDetails",
          "type": "tuple[]",
          "internalType": "struct BetDetails[]",
          "components": [
            {
              "name": "betType",
              "type": "uint8",
              "internalType": "enum BetType"
            },
            {
              "name": "numbers",
              "type": "uint8[]",
              "internalType": "uint8[]"
            },
            {
              "name": "amount",
              "type": "uint256",
              "internalType": "uint256"
            },
            {
              "name": "payout",
              "type": "uint256",
              "internalType": "uint256"
            }
          ]
        },
        {
          "name": "resultNumber",
          "type": "uint8",
          "internalType": "uint8"
        },
        {
          "name": "isWin",
          "type": "bool",
          "internalType": "bool"
        }
      ],
      "stateMutability": "view"
    },
    {
      "type": "function",
      "name": "getBetTypeInfo",
      "inputs": [
        {
          "name": "betTypeId",
          "type": "uint8",
          "internalType": "uint8"
        }
      ],
      "outputs": [
        {
          "name": "name",
          "type": "string",
          "internalType": "string"
        },
        {
          "name": "requiresNumber",
          "type": "bool",
          "internalType": "bool"
        },
        {
          "name": "multiplier",
          "type": "uint256",
          "internalType": "uint256"
        }
      ],
      "stateMutability": "pure"
    },
    {
      "type": "function",
      "name": "getGameStatus",
      "inputs": [
        {
          "name": "player",
          "type": "address",
          "internalType": "address"
        }
      ],
      "outputs": [
        {
          "name": "isActive",
          "type": "bool",
          "internalType": "bool"
        },
        {
          "name": "isWin",
          "type": "bool",
          "internalType": "bool"
        },
        {
          "name": "isCompleted",
          "type": "bool",
          "internalType": "bool"
        },
        {
          "name": "winningNumber",
          "type": "uint8",
          "internalType": "uint8"
        },
        {
          "name": "totalAmount",
          "type": "uint256",
          "internalType": "uint256"
        },
        {
          "name": "totalPayout",
          "type": "uint256",
          "internalType": "uint256"
        },
        {
          "name": "requestId",
          "type": "uint256",
          "internalType": "uint256"
        },
        {
          "name": "requestExists",
          "type": "bool",
          "internalType": "bool"
        },
        {
          "name": "requestProcessed",
          "type": "bool",
          "internalType": "bool"
        },
        {
          "name": "recoveryEligible",
          "type": "bool",
          "internalType": "bool"
        },
        {
          "name": "lastPlayTimestamp",
          "type": "uint256",
          "internalType": "uint256"
        }
      ],
      "stateMutability": "view"
    },
    {
      "type": "function",
      "name": "getPlayerForRequest",
      "inputs": [
        {
          "name": "requestId",
          "type": "uint256",
          "internalType": "uint256"
        }
      ],
      "outputs": [
        {
          "name": "",
          "type": "address",
          "internalType": "address"
        }
      ],
      "stateMutability": "view"
    },
    {
      "type": "function",
      "name": "getPossibleWinningNumbers",
      "inputs": [
        {
          "name": "betTypeId",
          "type": "uint8",
          "internalType": "uint8"
        }
      ],
      "outputs": [
        {
          "name": "numbers",
          "type": "uint8[]",
          "internalType": "uint8[]"
        }
      ],
      "stateMutability": "pure"
    },
    {
      "type": "function",
      "name": "getUserBetHistory",
      "inputs": [
        {
          "name": "player",
          "type": "address",
          "internalType": "address"
        },
        {
          "name": "offset",
          "type": "uint256",
          "internalType": "uint256"
        },
        {
          "name": "limit",
          "type": "uint256",
          "internalType": "uint256"
        }
      ],
      "outputs": [
        {
          "name": "bets",
          "type": "tuple[]",
          "internalType": "struct Bet[]",
          "components": [
            {
              "name": "timestamp",
              "type": "uint256",
              "internalType": "uint256"
            },
            {
              "name": "bets",
              "type": "tuple[]",
              "internalType": "struct BetDetails[]",
              "components": [
                {
                  "name": "betType",
                  "type": "uint8",
                  "internalType": "enum BetType"
                },
                {
                  "name": "numbers",
                  "type": "uint8[]",
                  "internalType": "uint8[]"
                },
                {
                  "name": "amount",
                  "type": "uint256",
                  "internalType": "uint256"
                },
                {
                  "name": "payout",
                  "type": "uint256",
                  "internalType": "uint256"
                }
              ]
            },
            {
              "name": "winningNumber",
              "type": "uint8",
              "internalType": "uint8"
            },
            {
              "name": "completed",
              "type": "bool",
              "internalType": "bool"
            },
            {
              "name": "isActive",
              "type": "bool",
              "internalType": "bool"
            }
          ]
        },
        {
          "name": "total",
          "type": "uint256",
          "internalType": "uint256"
        }
      ],
      "stateMutability": "view"
    },
    {
      "type": "function",
      "name": "hasPendingRequest",
      "inputs": [
        {
          "name": "player",
          "type": "address",
          "internalType": "address"
        }
      ],
      "outputs": [
        {
          "name": "",
          "type": "bool",
          "internalType": "bool"
        }
      ],
      "stateMutability": "view"
    },
    {
      "type": "function",
      "name": "owner",
      "inputs": [],
      "outputs": [
        {
          "name": "",
          "type": "address",
          "internalType": "address"
        }
      ],
      "stateMutability": "view"
    },
    {
      "type": "function",
      "name": "pause",
      "inputs": [],
      "outputs": [],
      "stateMutability": "nonpayable"
    },
    {
      "type": "function",
      "name": "paused",
      "inputs": [],
      "outputs": [
        {
          "name": "",
          "type": "bool",
          "internalType": "bool"
        }
      ],
      "stateMutability": "view"
    },
    {
      "type": "function",
      "name": "placeBet",
      "inputs": [
        {
          "name": "betRequests",
          "type": "tuple[]",
          "internalType": "struct BetRequest[]",
          "components": [
            {
              "name": "betTypeId",
              "type": "uint8",
              "internalType": "uint8"
            },
            {
              "name": "number",
              "type": "uint8",
              "internalType": "uint8"
            },
            {
              "name": "amount",
              "type": "uint256",
              "internalType": "uint256"
            }
          ]
        }
      ],
      "outputs": [
        {
          "name": "requestId",
          "type": "uint256",
          "internalType": "uint256"
        }
      ],
      "stateMutability": "nonpayable"
    },
    {
      "type": "function",
      "name": "rawFulfillRandomWords",
      "inputs": [
        {
          "name": "requestId",
          "type": "uint256",
          "internalType": "uint256"
        },
        {
          "name": "randomWords",
          "type": "uint256[]",
          "internalType": "uint256[]"
        }
      ],
      "outputs": [],
      "stateMutability": "nonpayable"
    },
    {
      "type": "function",
      "name": "recoverOwnStuckGame",
      "inputs": [],
      "outputs": [],
      "stateMutability": "nonpayable"
    },
    {
      "type": "function",
      "name": "renounceOwnership",
      "inputs": [],
      "outputs": [],
      "stateMutability": "nonpayable"
    },
    {
      "type": "function",
      "name": "s_requests",
      "inputs": [
        {
          "name": "",
          "type": "uint256",
          "internalType": "uint256"
        }
      ],
      "outputs": [
        {
          "name": "fulfilled",
          "type": "bool",
          "internalType": "bool"
        },
        {
          "name": "exists",
          "type": "bool",
          "internalType": "bool"
        }
      ],
      "stateMutability": "view"
    },
    {
      "type": "function",
      "name": "totalGamesPlayed",
      "inputs": [],
      "outputs": [
        {
          "name": "",
          "type": "uint256",
          "internalType": "uint256"
        }
      ],
      "stateMutability": "view"
    },
    {
      "type": "function",
      "name": "totalPayoutAmount",
      "inputs": [],
      "outputs": [
        {
          "name": "",
          "type": "uint256",
          "internalType": "uint256"
        }
      ],
      "stateMutability": "view"
    },
    {
      "type": "function",
      "name": "totalWageredAmount",
      "inputs": [],
      "outputs": [
        {
          "name": "",
          "type": "uint256",
          "internalType": "uint256"
        }
      ],
      "stateMutability": "view"
    },
    {
      "type": "function",
      "name": "transferOwnership",
      "inputs": [
        {
          "name": "newOwner",
          "type": "address",
          "internalType": "address"
        }
      ],
      "outputs": [],
      "stateMutability": "nonpayable"
    },
    {
      "type": "function",
      "name": "unpause",
      "inputs": [],
      "outputs": [],
      "stateMutability": "nonpayable"
    },
    {
      "type": "function",
      "name": "userData",
      "inputs": [
        {
          "name": "",
          "type": "address",
          "internalType": "address"
        }
      ],
      "outputs": [
        {
          "name": "maxHistorySize",
          "type": "uint256",
          "internalType": "uint256"
        },
        {
          "name": "currentRequestId",
          "type": "uint256",
          "internalType": "uint256"
        },
        {
          "name": "requestFulfilled",
          "type": "bool",
          "internalType": "bool"
        },
        {
          "name": "lastPlayedTimestamp",
          "type": "uint256",
          "internalType": "uint256"
        },
        {
          "name": "lastPlayedBlock",
          "type": "uint256",
          "internalType": "uint256"
        },
        {
          "name": "historyIndex",
          "type": "uint8",
          "internalType": "uint8"
        }
      ],
      "stateMutability": "view"
    },
    {
      "type": "event",
      "name": "BetPlaced",
      "inputs": [
        {
          "name": "player",
          "type": "address",
          "indexed": true,
          "internalType": "address"
        },
        {
          "name": "requestId",
          "type": "uint256",
          "indexed": false,
          "internalType": "uint256"
        }
      ],
      "anonymous": false
    },
    {
      "type": "event",
      "name": "GameCompleted",
      "inputs": [
        {
          "name": "player",
          "type": "address",
          "indexed": true,
          "internalType": "address"
        },
        {
          "name": "requestId",
          "type": "uint256",
          "indexed": false,
          "internalType": "uint256"
        }
      ],
      "anonymous": false
    },
    {
      "type": "event",
      "name": "GameRecovered",
      "inputs": [
        {
          "name": "player",
          "type": "address",
          "indexed": true,
          "internalType": "address"
        },
        {
          "name": "requestId",
          "type": "uint256",
          "indexed": false,
          "internalType": "uint256"
        }
      ],
      "anonymous": false
    },
    {
      "type": "event",
      "name": "OwnershipTransferred",
      "inputs": [
        {
          "name": "previousOwner",
          "type": "address",
          "indexed": true,
          "internalType": "address"
        },
        {
          "name": "newOwner",
          "type": "address",
          "indexed": true,
          "internalType": "address"
        }
      ],
      "anonymous": false
    },
    {
      "type": "event",
      "name": "Paused",
      "inputs": [
        {
          "name": "account",
          "type": "address",
          "indexed": false,
          "internalType": "address"
        }
      ],
      "anonymous": false
    },
    {
      "type": "event",
      "name": "Unpaused",
      "inputs": [
        {
          "name": "account",
          "type": "address",
          "indexed": false,
          "internalType": "address"
        }
      ],
      "anonymous": false
    },
    {
      "type": "error",
      "name": "BurnFailed",
      "inputs": [
        {
          "name": "account",
          "type": "address",
          "internalType": "address"
        },
        {
          "name": "amount",
          "type": "uint256",
          "internalType": "uint256"
        }
      ]
    },
    {
      "type": "error",
      "name": "EnforcedPause",
      "inputs": []
    },
    {
      "type": "error",
      "name": "ExpectedPause",
      "inputs": []
    },
    {
      "type": "error",
      "name": "InsufficientAllowance",
      "inputs": [
        {
          "name": "required",
          "type": "uint256",
          "internalType": "uint256"
        },
        {
          "name": "allowed",
          "type": "uint256",
          "internalType": "uint256"
        }
      ]
    },
    {
      "type": "error",
      "name": "InsufficientUserBalance",
      "inputs": [
        {
          "name": "required",
          "type": "uint256",
          "internalType": "uint256"
        },
        {
          "name": "available",
          "type": "uint256",
          "internalType": "uint256"
        }
      ]
    },
    {
      "type": "error",
      "name": "InvalidBetParameters",
      "inputs": [
        {
          "name": "reason",
          "type": "string",
          "internalType": "string"
        }
      ]
    },
    {
      "type": "error",
      "name": "InvalidBetType",
      "inputs": [
        {
          "name": "betType",
          "type": "uint256",
          "internalType": "uint256"
        }
      ]
    },
    {
      "type": "error",
      "name": "MaxPayoutExceeded",
      "inputs": [
        {
          "name": "potentialPayout",
          "type": "uint256",
          "internalType": "uint256"
        },
        {
          "name": "maxAllowed",
          "type": "uint256",
          "internalType": "uint256"
        }
      ]
    },
    {
      "type": "error",
      "name": "MintFailed",
      "inputs": [
        {
          "name": "account",
          "type": "address",
          "internalType": "address"
        },
        {
          "name": "amount",
          "type": "uint256",
          "internalType": "uint256"
        }
      ]
    },
    {
      "type": "error",
      "name": "MissingContractRole",
      "inputs": [
        {
          "name": "role",
          "type": "bytes32",
          "internalType": "bytes32"
        }
      ]
    },
    {
      "type": "error",
      "name": "OnlyCoordinatorCanFulfill",
      "inputs": [
        {
          "name": "have",
          "type": "address",
          "internalType": "address"
        },
        {
          "name": "want",
          "type": "address",
          "internalType": "address"
        }
      ]
    },
    {
      "type": "error",
      "name": "OwnableInvalidOwner",
      "inputs": [
        {
          "name": "owner",
          "type": "address",
          "internalType": "address"
        }
      ]
    },
    {
      "type": "error",
      "name": "OwnableUnauthorizedAccount",
      "inputs": [
        {
          "name": "account",
          "type": "address",
          "internalType": "address"
        }
      ]
    },
    {
      "type": "error",
      "name": "ReentrancyGuardReentrantCall",
      "inputs": []
    },
    {
      "type": "error",
      "name": "TransferFailed",
      "inputs": [
        {
          "name": "from",
          "type": "address",
          "internalType": "address"
        },
        {
          "name": "to",
          "type": "address",
          "internalType": "address"
        },
        {
          "name": "amount",
          "type": "uint256",
          "internalType": "uint256"
        }
      ]
    }
  ],
  "bytecode": {
    "object": "0x610160346102ee57601f61561638819003918201601f19168301916001600160401b038311848410176102f25780849260e0946040528339810103126102ee5761004881610306565b9061005560208201610306565b60408201519092906001600160401b03811681036102ee5760608301519060808401519263ffffffff8416908185036102ee5760a08601519561ffff871687036102ee5760c001519660ff8816908189036102ee5760015f558060805233156102db5760018054610100600160a81b0319811633600881811b610100600160a81b031692909217909355604051959291901c6001600160a01b03167f8be0079c531659141344cd1fd0a4f28419497f9722a3daafe3b4186f6b6457e05f80a36001600160a01b031692831561029957506001600160a01b0316928315610254571561020557156101c057600280546001600160a01b03191691909117905560a05260c05260e0526101005261012052610140526040516152fb908161031b823960805181612c5f015260a051816109fb015260c05181610939015260e0518161090a0152610100518161098f015261012051816109630152610140518181816109b801526143510152f35b60405162461bcd60e51b815260206004820152601e60248201527f4e756d626572206f6620776f7264732063616e6e6f74206265207a65726f00006044820152606490fd5b60405162461bcd60e51b815260206004820152602160248201527f43616c6c6261636b20676173206c696d69742063616e6e6f74206265207a65726044820152606f60f81b6064820152608490fd5b60405162461bcd60e51b815260206004820152601e60248201527f56524620636f6f7264696e61746f722063616e6e6f74206265207a65726f00006044820152606490fd5b62461bcd60e51b815260206004820152601c60248201527f546f6b656e20616464726573732063616e6e6f74206265207a65726f000000006044820152606490fd5b631e4fbdf760e01b5f525f60045260245ffd5b5f80fd5b634e487b7160e01b5f52604160045260245ffd5b51906001600160a01b03821682036102ee5756fe6080806040526004361015610012575f80fd5b5f905f3560e01c9081630424315114612d1f575080630c99375d14612cfc57806319469f1b14612ce15780631fe543e314612bd85780632257b05714612bbd578063282c51f314612b835780632d2cd03414612b5f5780632ff2149414612a29578063309167f514612a0557806336b39a60146129ea57806338f8bc6d146129cf5780633f4ba83a14612944578063432aeb8f1461292a5780634689b4411461290557806354e4437e1461288a57806357816f3e1461286f5780635a0db4d2146124185780635bdb2e1b146123fb5780635c492129146123de5780635c975abb146123bc5780635d424b851461238f578063715018a61461230e578063790231701461211d5780637d3d31ad146121025780638456cb591461209e5780638da5cb5b14612068578063918f86741461204c57806394b9b5071461203157806394bae38514612016578063a168fa8914611fdc578063a20ff9fc14611b46578063a398222714611b2a578063b34daef414611b0e578063b52a085514611503578063b8a5e438146114e7578063c1066251146114cb578063c1a5fe51146105de578063c891091314610556578063d53913931461051b578063d56ec8c9146104e7578063d6b6cd59146104cb578063ddebc952146104af578063e3286e55146103c9578063e60271cf146103ad578063e7efcfc21461038f578063f2fde38b1461029d578063fa198c4f1461024c5763fea9b5721461022e575f80fd5b34610249578060031936011261024957602060405160248152f35b80fd5b5034610249576020600319360112610249576004359060ff821682036102495761028c61027883613f1e565b604051938493606085526060850190612f55565b911515602084015260408301520390f35b5034610249576020600319360112610249576102b7612d5b565b6102bf61488b565b73ffffffffffffffffffffffffffffffffffffffff81169081156103635773ffffffffffffffffffffffffffffffffffffffff9074ffffffffffffffffffffffffffffffffffffffff006001549160081b167fffffffffffffffffffffff0000000000000000000000000000000000000000ff82161760015560081c167f8be0079c531659141344cd1fd0a4f28419497f9722a3daafe3b4186f6b6457e08380a380f35b6024837f1e4fbdf700000000000000000000000000000000000000000000000000000000815280600452fd5b50346102495780600319360112610249576020600554604051908152f35b5034610249578060031936011261024957602060405160098152f35b5034610249576060600319360112610249576103f36103e6612d5b565b6044359060243590613d6b565b9190604051916040830160408452825180915260608401602060608360051b870101940192905b82821061042e578580868960208301520390f35b90919293602080827fffffffffffffffffffffffffffffffffffffffffffffffffffffffffffffffa08960019503018552875190815181526080806104808585015160a08786015260a0850190612e3b565b9360ff60408201511660408501526060810151151560608501520151151591015296019201920190929161041a565b5034610249578060031936011261024957602060405160068152f35b5034610249578060031936011261024957602060405160038152f35b5034610249578060031936011261024957602073ffffffffffffffffffffffffffffffffffffffff60025416604051908152f35b503461024957806003193601126102495760206040517f9f2df0fed2c77648de5860a4cc508cd0818c85b8b8a1ab4ceeef8d981c8956a68152f35b503461024957602060031936011261024957604060c09173ffffffffffffffffffffffffffffffffffffffff61058a612d5b565b16815260036020522060018101549060028101549060ff60038201541660048201549060ff6006600585015494015416936040519586526020860152151560408501526060840152608083015260a0820152f35b5034610249576020600319360112610249576004359067ffffffffffffffff821161024957366023830112156102495781600401359067ffffffffffffffff821161024957602483019260243691606085020101116102495761063f6148db565b610647614912565b811561148657600f821161144157338152600360205260408120805480151590816113ed575b506113a85760028101938454611363578280805b8681106111555750906a0e79c4e6a3023e81800000811161111b5773ffffffffffffffffffffffffffffffffffffffff6002541690604051907f6f97e31c000000000000000000000000000000000000000000000000000000008252602082600481865afa9182156111105787926110dc575b508181116110ae5750506040517f70a08231000000000000000000000000000000000000000000000000000000008152336004820152602081602481855afa908115610e63579083918791611079575b5010610fce576040517fdd62ed3e000000000000000000000000000000000000000000000000000000008152336004820152306024820152602081604481855afa908115610e63579083918791610f99575b5010610ed9576040517f91d148540000000000000000000000000000000000000000000000000000000081527f3c11d16cbaffd01df69ce1c404f6340ee057498f5f00246190ea54220576a8486004820152306024820152602081604481855afa908115610e63578691610eba575b5015610e6e576040517f91d148540000000000000000000000000000000000000000000000000000000081527f9f2df0fed2c77648de5860a4cc508cd0818c85b8b8a1ab4ceeef8d981c8956a66004820152306024820152602081604481855afa908115610e63578691610e34575b5015610de857803b15610de4576040517fa7f94639000000000000000000000000000000000000000000000000000000008152336004820152602481018390529085908290604490829084905af18015610dd957908591610dc0575b50506108de906006546136db565b600655604051937f5d3b1d300000000000000000000000000000000000000000000000000000000085527f0000000000000000000000000000000000000000000000000000000000000000600486015267ffffffffffffffff7f000000000000000000000000000000000000000000000000000000000000000016602486015261ffff7f000000000000000000000000000000000000000000000000000000000000000016604486015263ffffffff7f000000000000000000000000000000000000000000000000000000000000000016606486015260ff7f000000000000000000000000000000000000000000000000000000000000000016608486015260208560a4818773ffffffffffffffffffffffffffffffffffffffff7f0000000000000000000000000000000000000000000000000000000000000000165af1948515610db5578495610d7d575b50602095604051610a3c8882612e00565b8581525f3681376040516060810181811067ffffffffffffffff821117610d5057604090815287825260018a83018181528284019485528a8a5260078c529189209251835492517fffffffffffffffffffffffffffffffffffffffffffffffffffffffffffff000090931660ff911515919091161791151560081b61ff00169190911782550190519081519167ffffffffffffffff8311610d505790898392610ae78b9695846139cb565b01908852898820885b838110610d3b57505050508186526008885260408620337fffffffffffffffffffffffff00000000000000000000000000000000000000008254161790558186526009885260408620600160ff19825416179055426004860155436005860155556003830160ff198154169055610b6681612e23565b91610b746040519384612e00565b818352601f19610b8383612e23565b0187865b828110610d0c5750505060405192610b9e84612de4565b42845287840190815285604085015285606085015260016080850152855b838110610ca05750505050600a8254105f14610c7e57815468010000000000000000811015610c515791610c04600692610bfe85600180989701855584612f7a565b90613a2a565b0160ff610c138183541661390b565b1660ff198254161790556040518381527f43e08d78302cdf9c94e1ffd293c2a3696139ee41cf3199b6f5eed9c7f6cc6090853392a255604051908152f35b6024847f4e487b710000000000000000000000000000000000000000000000000000000081526041600452fd5b81610c9b600692610bfe600a60ff86600199980154160684612f7a565b610c04565b80610d05818b610cbb610cb66001968a8a613a1a565b614954565b6040610ccb858c8c969596613a1a565b013591610ce460405194610cde86612dc8565b85613024565b83015260408201528a6060820152855190610cff83836136b8565b526136b8565b5001610bbc565b8190604051610d1a81612dc8565b89815260608382015289604082015289606082015282828901015201610b87565b8251818301558a9550918b0191600101610af0565b6024887f4e487b710000000000000000000000000000000000000000000000000000000081526041600452fd5b9094506020813d602011610dad575b81610d9960209383612e00565b81010312610da95751935f610a2b565b5f80fd5b3d9150610d8c565b6040513d86823e3d90fd5b81610dca91612e00565b610dd557835f6108d0565b8380fd5b6040513d87823e3d90fd5b8480fd5b6024857fb3eebf6e0000000000000000000000000000000000000000000000000000000081527f9f2df0fed2c77648de5860a4cc508cd0818c85b8b8a1ab4ceeef8d981c8956a6600452fd5b610e56915060203d602011610e5c575b610e4e8183612e00565b810190613a02565b5f610874565b503d610e44565b6040513d88823e3d90fd5b6024857fb3eebf6e0000000000000000000000000000000000000000000000000000000081527f3c11d16cbaffd01df69ce1c404f6340ee057498f5f00246190ea54220576a848600452fd5b610ed3915060203d602011610e5c57610e4e8183612e00565b5f610805565b6040517fdd62ed3e0000000000000000000000000000000000000000000000000000000081523360048201523060248201529085908390602090849060449082905afa908115610f8e578291610f59575b604493507f2a1b2dd8000000000000000000000000000000000000000000000000000000008352600452602452fd5b90506020833d602011610f86575b81610f7460209383612e00565b81010312610da9576044925190610f2a565b3d9150610f67565b6040513d84823e3d90fd5b9150506020813d602011610fc6575b81610fb560209383612e00565b81010312610da9578290515f610796565b3d9150610fa8565b60249160208692604051948580927f70a082310000000000000000000000000000000000000000000000000000000082523360048301525afa908115610f8e578291611044575b604493507f5f504d20000000000000000000000000000000000000000000000000000000008352600452602452fd5b90506020833d602011611071575b8161105f60209383612e00565b81010312610da9576044925190611015565b3d9150611052565b9150506020813d6020116110a6575b8161109560209383612e00565b81010312610da9578290515f610744565b3d9150611088565b7f21e510be000000000000000000000000000000000000000000000000000000008752600452602452604485fd5b9091506020813d602011611108575b816110f860209383612e00565b81010312610da95751905f6106f4565b3d91506110eb565b6040513d89823e3d90fd5b7f21e510be0000000000000000000000000000000000000000000000000000000085526004526a0e79c4e6a3023e81800000602452604484fd5b6040611162828987613a1a565b01351561131e5769152d02c7e14af68000006040611181838a88613a1a565b0135116112d9576111a06040611198838a88613a1a565b0135836136db565b9182106112945783926111e66127106111df8a60406111d8876111d16111cb610cb683878e9f613a1a565b50615037565b938c613a1a565b0135613981565b04826136db565b90811061124f576969e10de76676d080000090921161120a57600101919091610681565b60646040516334460f4160e01b815260206004820152601a60248201527f546f74616c2062657420616d6f756e7420746f6f206c617267650000000000006044820152fd5b60646040516334460f4160e01b815260206004820152601360248201527f4d6178207061796f7574206f766572666c6f77000000000000000000000000006044820152fd5b60646040516334460f4160e01b815260206004820152601560248201527f546f74616c20616d6f756e74206f766572666c6f7700000000000000000000006044820152fd5b60646040516334460f4160e01b815260206004820152601b60248201527f53696e676c652062657420616d6f756e7420746f6f206c6172676500000000006044820152fd5b60646040516334460f4160e01b815260206004820152601260248201527f496e76616c69642062657420616d6f756e7400000000000000000000000000006044820152fd5b60646040516334460f4160e01b815260206004820152601a60248201527f557365722068617320612070656e64696e6720726571756573740000000000006044820152fd5b60646040516334460f4160e01b815260206004820152601760248201527f557365722068617320616e206163746976652067616d650000000000000000006044820152fd5b5f1981019150811161141457600261140760ff9284612f7a565b50015460101c165f61066d565b6024837f4e487b710000000000000000000000000000000000000000000000000000000081526011600452fd5b60646040516334460f4160e01b815260206004820152600d60248201527f546f6f206d616e792062657473000000000000000000000000000000000000006044820152fd5b60646040516334460f4160e01b815260206004820152601060248201527f4e6f20626574732070726f7669646564000000000000000000000000000000006044820152fd5b50346102495780600319360112610249576020604051600a8152f35b5034610249578060031936011261024957602060405160048152f35b50346102495760206003193601126102495761151d612d5b565b61152561488b565b61152d6148db565b73ffffffffffffffffffffffffffffffffffffffff81169081835260036020526040832091825480158015611aba575b611a74575f198101908111611a47576115769084612f7a565b5091600284019384549182151591828093611a31575b80611a18575b6119ac57600581015461012c810180911161197f574311836115b760048401546136cc565b421181611965575b82159261195c575b508115611953575b506118e95787928896600181019788545b898183106118c457505050841561187e57600291611819575b0180547fffffffffffffffffffffffffffffffffffffffffffffffffffffffffff000000166101fe179055875b88875482101561165857508060026116406001938a6136e8565b500154600361164f838b6136e8565b50015501611626565b809750600392915088550160ff19815416905573ffffffffffffffffffffffffffffffffffffffff60025416916040517f91d148540000000000000000000000000000000000000000000000000000000081527f9f2df0fed2c77648de5860a4cc508cd0818c85b8b8a1ab4ceeef8d981c8956a66004820152306024820152602081604481875afa9081156111105787916117fa575b50156117ae5790829186933b15610dd5576040517f40c10f1900000000000000000000000000000000000000000000000000000000815273ffffffffffffffffffffffffffffffffffffffff92909216600483015260248201529082908290604490829084905af18015610f8e57611795575b505060207f448a475c5a8d6a583ecaa725cd34b02e206d32726277fcc19372f7ff87bc7e3491604051908152a26001815580f35b8161179f91612e00565b6117aa578284611761565b8280fd5b6024867fb3eebf6e0000000000000000000000000000000000000000000000000000000081527f9f2df0fed2c77648de5860a4cc508cd0818c85b8b8a1ab4ceeef8d981c8956a6600452fd5b611813915060203d602011610e5c57610e4e8183612e00565b876116ee565b858a52600860205260408a207fffffffffffffffffffffffff00000000000000000000000000000000000000008154169055858a52600960205260408a2060ff198154169055858a526007602052611879600160408c208c8155016139aa565b6115f9565b6040516334460f4160e01b815260206004820152601160248201527f4e6f7468696e6720746f20726566756e640000000000000000000000000000006044820152606490fd5b829760026118d8600194956118e1946136e8565b500154906136db565b9601906115e0565b60846040516334460f4160e01b8152602060048201526024808201527f47616d65206e6f7420656c696769626c6520666f7220666f7263652073746f7060448201527f20796574000000000000000000000000000000000000000000000000000000006064820152fd5b9050155f6115cf565b1591505f6115c7565b868b52600760205260408b205460081c60ff1691506115bf565b6024897f4e487b710000000000000000000000000000000000000000000000000000000081526011600452fd5b6040516334460f4160e01b815260206004820152602860248201527f52657175657374206a7573742066756c66696c6c65642c206c6574205652462060448201527f636f6d706c6574650000000000000000000000000000000000000000000000006064820152608490fd5b506005810154600a810180911161197f57431115611592565b50838852600760205260ff60408920541661158c565b6024857f4e487b710000000000000000000000000000000000000000000000000000000081526011600452fd5b6040516334460f4160e01b815260206004820152600e60248201527f4e6f206163746976652067616d650000000000000000000000000000000000006044820152606490fd5b505f198101818111611ae1576002611ad460ff9287612f7a565b50015460101c161561155d565b6024867f4e487b710000000000000000000000000000000000000000000000000000000081526011600452fd5b5034610249578060031936011261024957602060405160028152f35b5034610249578060031936011261024957602060405160078152f35b5034610da9575f600319360112610da957611b5f6148db565b611b67614912565b335f52600360205260405f20805480158015611fb5575b611a74575f198101908111611f2a57611b979082612f7a565b5060028201918254908115611f7057815f52600760205260ff60405f20541680611f57575b6119ac57600581015461012c8101809111611f2a574311611be060048301546136cc565b4211835f52600760205260ff60405f205460081c1690821592611f21575b508115611f18575b50611ead575f905f93600181019485545b808210611e91575050821561187e57600290845f526007602052611c43600160405f205f8155016139aa565b5f85815260086020908152604080832080547fffffffffffffffffffffffff000000000000000000000000000000000000000016905560099091528120805460ff19169055910180547fffffffffffffffffffffffffffffffffffffffffffffffffffffffffff000000166101ff1790555b8454811015611ce557806002611ccd600193886136e8565b5001546003611cdc83896136e8565b50015501611cb5565b8684846003855f8b550160ff19815416905573ffffffffffffffffffffffffffffffffffffffff600254166040517f91d148540000000000000000000000000000000000000000000000000000000081527f9f2df0fed2c77648de5860a4cc508cd0818c85b8b8a1ab4ceeef8d981c8956a66004820152306024820152602081604481855afa908115611e1b575f91611e72575b5015611e2657803b15610da9576040517f40c10f1900000000000000000000000000000000000000000000000000000000815233600482015260248101929092525f908290604490829084905af18015611e1b57611e06575b506040519081527f448a475c5a8d6a583ecaa725cd34b02e206d32726277fcc19372f7ff87bc7e3460203392a26001815580f35b611e139192505f90612e00565b5f9082611dd2565b6040513d5f823e3d90fd5b7fb3eebf6e000000000000000000000000000000000000000000000000000000005f527f9f2df0fed2c77648de5860a4cc508cd0818c85b8b8a1ab4ceeef8d981c8956a660045260245ffd5b611e8b915060203d602011610e5c57610e4e8183612e00565b85611d79565b9093611ea560019160026118d8888b6136e8565b940190611c17565b60846040516334460f4160e01b815260206004820152602260248201527f47616d65206e6f7420656c696769626c6520666f72207265636f76657279207960448201527f65740000000000000000000000000000000000000000000000000000000000006064820152fd5b9050155f611c06565b1591505f611bfe565b7f4e487b71000000000000000000000000000000000000000000000000000000005f52601160045260245ffd5b506005810154600a8101809111611f2a57431115611bbc565b60646040516334460f4160e01b815260206004820152601d60248201527f4e6f2070656e64696e67207265717565737420746f207265636f7665720000006044820152fd5b505f198101818111611f2a576002611fcf60ff9285612f7a565b50015460101c1615611b7e565b34610da9576020600319360112610da9576004355f5260076020526040805f205460ff8251918181161515835260081c1615156020820152f35b34610da9575f600319360112610da9576020604051600a8152f35b34610da9575f600319360112610da9576020604051600b8152f35b34610da9575f600319360112610da95760206040516127108152f35b34610da9575f600319360112610da957602073ffffffffffffffffffffffffffffffffffffffff60015460081c16604051908152f35b34610da9575f600319360112610da9576120b661488b565b6120be6148db565b6120c6614912565b600160ff19815416176001557f62e78cea01bee320cd4e420270b5ea74000d11b0c9f74754ebdbfc544b05a2586020604051338152a160015f55005b34610da9575f600319360112610da9576020604051600c8152f35b34610da9575f600319360112610da9576040516101c061213d8183612e00565b600d8252601f19810190813660208501376040519061215c8183612e00565b600d82525f5b8381106122fd57506040516121778282612e00565b600d81526020810192843685376121916040519384612e00565b600d835260208301943686375f5b60ff8116600d81101561220257816121ce6121fa838b816001966121c460ff99613f1e565b97919390946136b8565b526121d9838a6136b8565b526121e482896136b8565b506121ef828a6136b8565b9015159052886136b8565b52011661219f565b50506122209594939291604051968796608088526080880190612f1f565b8681036020880152825180825260208201916020808360051b8301019501925f915b8383106122c4575050505050602090868303604088015251918281520192905f5b8181106122a957505050602090848303606086015251918281520191905f5b818110612290575050500390f35b8251845285945060209384019390920191600101612282565b82511515855287965060209485019490920191600101612263565b919396979899509193946020806122e783601f1986600196030187528a51612f55565b98019301930190928a9998979695949293612242565b806060602080938601015201612162565b34610da9575f600319360112610da95761232661488b565b5f73ffffffffffffffffffffffffffffffffffffffff6001547fffffffffffffffffffffff0000000000000000000000000000000000000000ff811660015560081c167f8be0079c531659141344cd1fd0a4f28419497f9722a3daafe3b4186f6b6457e08280a3005b34610da9576020600319360112610da95760206123b26123ad612d5b565b61391c565b6040519015158152f35b34610da9575f600319360112610da957602060ff600154166040519015158152f35b34610da9575f600319360112610da9576020600454604051908152f35b34610da9575f600319360112610da9576020600654604051908152f35b34610da9576020600319360112610da95760043560ff8116809103610da957806124a45750604051601f196104c06124508184612e00565b6025835201366020830137805f5b60ff81166024811161248457908161247961247f93866136b8565b5261390b565b61245e565b50506124a091505b604051918291602083526020830190612f1f565b0390f35b600781036125a05750604051601f196102606124c08184612e00565b601283520136602083013780604051916124d983612d7e565b6001835260036020840152600560408401526007606084015260096080840152600c60a0840152600e60c0840152601060e084015260126101008401526013610120840152601561014084015260176101608401526019610180840152601b6101a0840152601e6101c084015260206101e0840152602261020084015260246102208401525f5b60ff811660128110156125925760ff918161258a846125816001958a6138fa565b511691876136b8565b520116612560565b505090506124a0915061248c565b600881036126855750604051601f196102606125bc8184612e00565b601283520136602083013780604051916125d583612d7e565b60028352600460208401526006604084015260086060840152600a6080840152600b60a0840152600d60c0840152600f60e08401526011610100840152601461012084015260166101408401526018610160840152601a610180840152601c6101a0840152601d6101c0840152601f6101e0840152602161020084015260236102208401525f5b60ff811660128110156125925760ff918161267d846125816001958a6138fa565b52011661265c565b600981036126f55750604051601f196102606126a18184612e00565b6012835201366020830137805f5b60ff811660128110156126e9578160019160ff6126de6126d76126d283976138aa565b6138d0565b92876136b8565b9116905201166126af565b5050506124a09061248c565b600a81036127525750604051601f196102606127118184612e00565b6012835201366020830137805f5b60ff811660128110156126e9578160019160ff6127476126d761274283976138d0565b6138aa565b91169052011661271f565b600b81036127a75750604051601f1961026061276e8184612e00565b6012835201366020830137805f5b60ff811660128110156126e9578160019160ff61279c6126d782966138aa565b91169052011661277c565b600c0361280457604051601f196102606127c18184612e00565b6012835201366020830137805f5b60ff811660128110156126e957601381019160ff8311611f2a5760ff92836127f9600194876136b8565b9116905201166127cf565b60846040516334460f4160e01b815260206004820152602960248201527f496e76616c696420626574207479706520494420666f72206e756d626572206760448201527f656e65726174696f6e00000000000000000000000000000000000000000000006064820152fd5b34610da9575f600319360112610da957602060405160ff8152f35b34610da9576020600319360112610da95761016060ff6128b06128ab612d5b565b613701565b999a9296919790986040969496519b15158c52151560208c0152151560408b0152166060890152608088015260a087015260c0860152151560e085015215156101008401521515610120830152610140820152f35b34610da9575f600319360112610da95760206040516a0e79c4e6a3023e818000008152f35b34610da9575f600319360112610da95760206040515f8152f35b34610da9575f600319360112610da95761295c61488b565b6129646148db565b60015460ff8116156129a75760ff19166001557f5db9ee0a495bf2e6ff9c91a7834c1ba4fdd244a5e8aa4e537bd38aeae4b073aa6020604051338152a160015f55005b7f8dfc202b000000000000000000000000000000000000000000000000000000005f5260045ffd5b34610da9575f600319360112610da957602060405160fe8152f35b34610da9575f600319360112610da957602060405160018152f35b34610da9575f600319360112610da957602060405169152d02c7e14af68000008152f35b34610da9576040600319360112610da957612a42612d5b565b73ffffffffffffffffffffffffffffffffffffffff6024359116805f52600360205260405f2054821015612b0157612a8e91612a88915f52600360205260405f20612f7a565b506135de565b60208101905f805b83518051831015612ac4576001916060612ab385612abc946136b8565b510151906136db565b910190612a96565b83858360ff6040845193519401511690612af06040519485948552608060208601526080850190612e3b565b916040840152151560608301520390f35b60646040517f08c379a000000000000000000000000000000000000000000000000000000000815260206004820152601160248201527f496e76616c69642062657420696e6465780000000000000000000000000000006044820152fd5b34610da9575f600319360112610da95760206040516969e10de76676d08000008152f35b34610da9575f600319360112610da95760206040517f3c11d16cbaffd01df69ce1c404f6340ee057498f5f00246190ea54220576a8488152f35b34610da9575f600319360112610da957602060405160058152f35b34610da9576040600319360112610da95760243567ffffffffffffffff8111610da95736602382011215610da957806004013590612c1582612e23565b91612c236040519384612e00565b8083526024602084019160051b83010191368311610da957602401905b828210612cd1578373ffffffffffffffffffffffffffffffffffffffff7f00000000000000000000000000000000000000000000000000000000000000001690813303612ca157612c9b90612c936148db565b600435614326565b60015f55005b507f1cf993f4000000000000000000000000000000000000000000000000000000005f523360045260245260445ffd5b8135815260209182019101612c40565b34610da9575f600319360112610da957602060405160088152f35b34610da9576020600319360112610da95760206123b2612d1a612d5b565b612fc0565b34610da9576020600319360112610da9576020906004355f526008825273ffffffffffffffffffffffffffffffffffffffff60405f2054168152f35b6004359073ffffffffffffffffffffffffffffffffffffffff82168203610da957565b610240810190811067ffffffffffffffff821117612d9b57604052565b7f4e487b71000000000000000000000000000000000000000000000000000000005f52604160045260245ffd5b6080810190811067ffffffffffffffff821117612d9b57604052565b60a0810190811067ffffffffffffffff821117612d9b57604052565b90601f601f19910116810190811067ffffffffffffffff821117612d9b57604052565b67ffffffffffffffff8111612d9b5760051b60200190565b9080602083519182815201916020808360051b8301019401925f915b838310612e6657505050505090565b9091929394601f19828203018352855190608081019180516009811015612ef2578252602081015192608060208401528351809152602060a084019401905f905b808210612ed757505050604080820151908301526060908101519101529460209081019493600101920190612e57565b90919460208060019260ff8951168152019601920190612ea7565b7f4e487b71000000000000000000000000000000000000000000000000000000005f52602160045260245ffd5b90602080835192838152019201905f5b818110612f3c5750505090565b825160ff16845260209384019390920191600101612f2f565b90601f19601f602080948051918291828752018686015e5f8582860101520116010190565b8054821015612f93575f52600360205f20910201905f90565b7f4e487b71000000000000000000000000000000000000000000000000000000005f52603260045260245ffd5b73ffffffffffffffffffffffffffffffffffffffff165f52600360205260405f208054801561301e575f198101908111611f2a57600261300260ff9284612f7a565b50015460101c169081613013575090565b600291500154151590565b50505f90565b6009821015612ef25752565b90604051918281549182825260208201905f5260205f20925f905b80601f83011061343657613161945491818110613422575b81811061340b575b8181106133f4575b8181106133dd575b8181106133c7575b8181106133b0575b818110613399575b818110613382575b81811061336b575b818110613354575b81811061333d575b818110613326575b81811061330f575b8181106132f8575b8181106132e1575b8181106132ca575b8181106132b3575b81811061329c575b818110613285575b81811061326e575b818110613257575b818110613240575b818110613229575b818110613212575b8181106131fb575b8181106131e4575b8181106131cd575b8181106131b6575b81811061319f575b818110613188575b818110613171575b10613163575b500383612e00565b565b60f81c81526020015f613159565b92602060019160ff8560f01c168152019301613153565b92602060019160ff8560e81c16815201930161314b565b92602060019160ff8560e01c168152019301613143565b92602060019160ff8560d81c16815201930161313b565b92602060019160ff8560d01c168152019301613133565b92602060019160ff8560c81c16815201930161312b565b92602060019160ff8560c01c168152019301613123565b92602060019160ff8560b81c16815201930161311b565b92602060019160ff8560b01c168152019301613113565b92602060019160ff8560a81c16815201930161310b565b92602060019160ff8560a01c168152019301613103565b92602060019160ff8560981c1681520193016130fb565b92602060019160ff8560901c1681520193016130f3565b92602060019160ff8560881c1681520193016130eb565b92602060019160ff8560801c1681520193016130e3565b92602060019160ff8560781c1681520193016130db565b92602060019160ff8560701c1681520193016130d3565b92602060019160ff8560681c1681520193016130cb565b92602060019160ff8560601c1681520193016130c3565b92602060019160ff8560581c1681520193016130bb565b92602060019160ff8560501c1681520193016130b3565b92602060019160ff8560481c1681520193016130ab565b92602060019160ff8560401c1681520193016130a3565b92602060019160ff8560381c16815201930161309b565b92602060019160ff8560301c168152019301613093565b92602060019160ff8560281c16815201930161308b565b92602060019160ff85831c168152019301613083565b92602060019160ff8560181c16815201930161307b565b92602060019160ff8560101c168152019301613073565b92602060019160ff8560081c16815201930161306b565b92602060019160ff85168152019301613063565b916020919350610400600191865460ff8116825260ff8160081c168583015260ff8160101c16604083015260ff8160181c16606083015260ff81861c16608083015260ff8160281c1660a083015260ff8160301c1660c083015260ff8160381c1660e083015260ff8160401c1661010083015260ff8160481c1661012083015260ff8160501c1661014083015260ff8160581c1661016083015260ff8160601c1661018083015260ff8160681c166101a083015260ff8160701c166101c083015260ff8160781c166101e083015260ff8160801c1661020083015260ff8160881c1661022083015260ff8160901c1661024083015260ff8160981c1661026083015260ff8160a01c1661028083015260ff8160a81c166102a083015260ff8160b01c166102c083015260ff8160b81c166102e083015260ff8160c01c1661030083015260ff8160c81c1661032083015260ff8160d01c1661034083015260ff8160d81c1661036083015260ff8160e01c1661038083015260ff8160e81c166103a083015260ff8160f01c166103c083015260f81c6103e082015201940192018592939161304b565b906040516135eb81612de4565b80928054825260018101805461360081612e23565b9161360e6040519384612e00565b81835260208301905f5260205f205f915b8383106136595750505050600260809260ff92602086015201548181166040850152818160081c161515606085015260101c161515910152565b6004602060019260405161366c81612dc8565b61367a60ff87541682613024565b613685858701613030565b83820152600286015460408201526003860154606082015281520192019201919061361f565b805115612f935760200190565b8051821015612f935760209160051b010190565b90610e108201809211611f2a57565b91908201809211611f2a57565b8054821015612f93575f5260205f209060021b01905f90565b73ffffffffffffffffffffffffffffffffffffffff168015613864575f52600360205260405f20908154801561384a575f198101908111611f2a576137469083612f7a565b5060028101549060ff8260101c169360ff808460081c1693169160028201546004830154955f935f9360015f91018054905b81831061381b575050508884151580613814575b985f935f9386151590816137f2575b5f946137a5575050565b600591929450015461012c8101809111611f2a574311906137c5836136cc565b4211816137ea575b826137e2575b50816137dd575091565b905091565b91505f6137d3565b8691506137cd565b94509450855f52600760205260405f20549460ff808760081c1696169461379b565b508761378c565b9091959661384161383460019260026118d88b876136e8565b9860036118d88a866136e8565b96019190613778565b505f91508190819081908190819081908190819081908190565b6040516334460f4160e01b815260206004820152601660248201527f496e76616c696420706c617965722061646472657373000000000000000000006044820152606490fd5b60ff60019116019060ff8211611f2a57565b9060ff8091169116019060ff8211611f2a57565b60011b906101fe60fe831692168203611f2a57565b60ff60039116029060ff8216918203611f2a57565b906012811015612f935760051b0190565b60ff1660ff8114611f2a5760010190565b73ffffffffffffffffffffffffffffffffffffffff165f52600360205260405f208054801561397a575f198101908111611f2a57600261395e60ff9284612f7a565b50015460101c16159081613970575090565b6002915001541590565b5050600190565b81810292918115918404141715611f2a57565b81811061399f575050565b5f8155600101613994565b80545f8255806139b8575050565b613161915f5260205f2090810190613994565b90680100000000000000008111612d9b578154908083558181106139ee57505050565b613161925f5260205f209182019101613994565b90816020910312610da957518015158103610da95790565b9190811015612f93576060020190565b90613d3f5781518155600181016020830151805190680100000000000000008211612d9b578254828455808310613c83575b50602001915f5260205f20915f905b828210613b0657505050506002608091019160ff806040830151161660ff19845416178355613ad06060820151151584907fffffffffffffffffffffffffffffffffffffffffffffffffffffffffffff00ff61ff00835492151560081b169116179055565b015181547fffffffffffffffffffffffffffffffffffffffffffffffffffffffffff00ffff1690151560101b62ff000016179055565b805180516009811015612ef25760ff60ff1987541691161785556001850160208201519081519167ffffffffffffffff8311612d9b57680100000000000000008311612d9b576020908254848455808510613c3a575b5001905f5260205f208260051c915f5b838110613bfb5750601f1984168085039403613bae575b5050505060206001926060836040600495015160028a01550151600388015501940191019092613a6b565b5f935f905b808210613bcb57505050015560208260606004613b83565b9091946020613bf16001928560ff8a5116919060ff809160031b9316831b921b19161790565b9601920190613bb3565b5f5f5b60208110613c13575083820155600101613b6c565b835190939160019160209160ff600388901b81811b199092169216901b1792019301613bfe565b613c6490845f52835f20601f80880160051c82019281891680613c6a575b500160051c0190613994565b5f613b5c565b5f198501905f198254918a0360031b1c1690555f613c58565b7f3fffffffffffffffffffffffffffffffffffffffffffffffffffffffffffffff81168103611f2a577f3fffffffffffffffffffffffffffffffffffffffffffffffffffffffffffffff83168303611f2a57835f5260205f209060021b8101908360021b015b818110613cf65750613a5c565b805f600492556001810180545f825580613d1f575b50505f60028201555f600382015501613ce9565b613d38915f52601f60205f20910160051c810190613994565b5f80613d0b565b7f4e487b71000000000000000000000000000000000000000000000000000000005f525f60045260245ffd5b929173ffffffffffffffffffffffffffffffffffffffff606094165f52600360205260405f20908154613d9d81612e23565b92613dab6040519485612e00565b81845260208401905f5260205f205f915b838310613f00575050505081519485841015613ea45750613ddd90836136db565b90848211613e9c575b828203918211611f2a57613df982612e23565b92613e076040519485612e00565b828452601f19613e1684612e23565b015f5b818110613e665750505f5b838110613e3357505050509190565b80613e49613e43600193856136db565b856136b8565b51613e5482886136b8565b52613e5f81876136b8565b5001613e24565b602090604051613e7581612de4565b5f81526060838201525f60408201525f60608201525f608082015282828901015201613e19565b849150613de6565b9250505060405190613eb7602083612e00565b5f82525f90815b828110613ecc575050509190565b602090604051613edb81612de4565b5f815283838201525f60408201525f848201525f608082015282828701015201613ebe565b60036020600192613f10856135de565b815201920192019190613dbc565b60ff1680613f6a5750604051613f35604082612e00565b600881527f53747261696768740000000000000000000000000000000000000000000000006020820152906001906205573090565b60018103613fb45750604051613f81604082612e00565b601281527f466972737420446f7a656e2028312d31322900000000000000000000000000006020820152905f90614e2090565b60028103613ffe5750604051613fcb604082612e00565b601481527f5365636f6e6420446f7a656e202831332d3234290000000000000000000000006020820152905f90614e2090565b600381036140485750604051614015604082612e00565b601381527f546869726420446f7a656e202832352d333629000000000000000000000000006020820152905f90614e2090565b60048103614092575060405161405f604082612e00565b600c81527f466972737420436f6c756d6e00000000000000000000000000000000000000006020820152905f90614e2090565b600581036140dc57506040516140a9604082612e00565b600d81527f5365636f6e6420436f6c756d6e000000000000000000000000000000000000006020820152905f90614e2090565b6006810361412657506040516140f3604082612e00565b600c81527f546869726420436f6c756d6e00000000000000000000000000000000000000006020820152905f90614e2090565b60078103614170575060405161413d604082612e00565b600381527f52656400000000000000000000000000000000000000000000000000000000006020820152905f9061271090565b600881036141ba5750604051614187604082612e00565b600581527f426c61636b0000000000000000000000000000000000000000000000000000006020820152905f9061271090565b6009810361420457506040516141d1604082612e00565b600481527f4576656e000000000000000000000000000000000000000000000000000000006020820152905f9061271090565b600a810361424e575060405161421b604082612e00565b600381527f4f646400000000000000000000000000000000000000000000000000000000006020820152905f9061271090565b600b81036142985750604051614265604082612e00565b600a81527f4c6f772028312d313829000000000000000000000000000000000000000000006020820152905f9061271090565b600c146142e5576040516334460f4160e01b815260206004820152601360248201527f496e76616c6964206265742074797065204944000000000000000000000000006044820152606490fd5b6040516142f3604082612e00565b600c81527f48696768202831392d33362900000000000000000000000000000000000000006020820152905f9061271090565b91825f52600760205260405f209081549060ff8260081c16156148465760ff821661480157835160ff7f000000000000000000000000000000000000000000000000000000000000000016036147bc57845f52600860205273ffffffffffffffffffffffffffffffffffffffff60405f205416801561386457805f52600360205260405f209260028401948786540361477757600160ff198193161781550185519067ffffffffffffffff8211612d9b576143e182826139cb565b60208701905f5260205f205f5b83811061476357505050506003830192600160ff198554161784558054156147415780545f198101908111611f2a5761442691612f7a565b5094600286019360ff855460101c16156146ce575061444890959493956136ab565b51855460ff1916602590910660ff169081178655955f94600101939085805b86548810156145225761447a88886136e8565b509761449c8b8a60ff815416614497600160028401549301613030565b614ded565b826144a782826136db565b106144c45760036144ba826001956136db565b9a01550196614467565b60646040517f08c379a000000000000000000000000000000000000000000000000000000000815260206004820152600f60248201527f5061796f7574206f766572666c6f7700000000000000000000000000000000006044820152fd5b939792965093975093506101007fffffffffffffffffffffffffffffffffffffffffffffffffffffffffff0000ff825416179055806145f3575b50906020917f8ab3a19ccf89d2ab7a1babe9f0dc4d37e5d5ab8a7d6850e70041fd7ff32589559360016004540160045582825260088452604082207fffffffffffffffffffffffff00000000000000000000000000000000000000008154169055828252600984526040822060ff198154169055828252600784526145e9600160408420848155016139aa565b55604051908152a2565b919073ffffffffffffffffffffffffffffffffffffffff6002541693843b15610da9576040517f40c10f1900000000000000000000000000000000000000000000000000000000815273ffffffffffffffffffffffffffffffffffffffff8716600482015260248101859052945f908690604490829084905af1938415611e1b577f8ab3a19ccf89d2ab7a1babe9f0dc4d37e5d5ab8a7d6850e70041fd7ff3258955956020956146b7575b506146ab906005546136db565b6005559350909161455c565b6146c49193505f90612e00565b5f916146ab61469e565b95505050935f92915080835260076020526146f1600160408520858155016139aa565b8083526008602052604083207fffffffffffffffffffffffff00000000000000000000000000000000000000008154169055825260096020526040822060ff1981541690555560ff198154169055565b5050935f9291935080835260076020526146f1600160408520858155016139aa565b6001906020845194019381840155016143ee565b60646040516334460f4160e01b815260206004820152601360248201527f52657175657374204944206d69736d61746368000000000000000000000000006044820152fd5b60646040516334460f4160e01b815260206004820152601b60248201527f496e76616c69642072616e646f6d20776f726473206c656e67746800000000006044820152fd5b60646040516334460f4160e01b815260206004820152601960248201527f5265717565737420616c72656164792066756c66696c6c6564000000000000006044820152fd5b60646040516334460f4160e01b815260206004820152601160248201527f52657175657374206e6f7420666f756e640000000000000000000000000000006044820152fd5b73ffffffffffffffffffffffffffffffffffffffff60015460081c1633036148af57565b7f118cdaa7000000000000000000000000000000000000000000000000000000005f523360045260245ffd5b60025f54146148ea5760025f55565b7f3ee5aeb5000000000000000000000000000000000000000000000000000000005f5260045ffd5b60ff6001541661491e57565b7fd93c0665000000000000000000000000000000000000000000000000000000005f5260045ffd5b3560ff81168103610da95790565b60ff61495f82614946565b16614a0f5760200190602460ff61497584614946565b16116149b15761499d6040519261498d604085612e00565b6001845260203681860137614946565b60ff6149a8846136ab565b911690525f9190565b60646040517f08c379a000000000000000000000000000000000000000000000000000000000815260206004820152601f60248201527f496e76616c6964206e756d62657220666f7220737472616967687420626574006044820152fd5b600160ff614a1c83614946565b1603614a7f575060405190601f196101a0614a378185612e00565b600c8452013660208401375f5b60ff8116600c811015614a77578160019160ff614a6c614a658296866138bc565b92886136b8565b911690520116614a44565b505060019190565b600260ff614a8c83614946565b1603614ae1575060405190601f196101a0614aa78185612e00565b600c8452013660208401375f5b60ff8116600c811015614a77578160019160ff614ad6614a658296600d6138bc565b911690520116614ab4565b600360ff614aee83614946565b1603614b43575060405190601f196101a0614b098185612e00565b600c8452013660208401375f5b60ff8116600c811015614a77578160019160ff614b38614a65829660196138bc565b911690520116614b16565b600460ff614b5083614946565b1603614bb4575060405190601f196101a0614b6b8185612e00565b600c8452013660208401375f5b60ff8116600c811015614bac578160019160ff614ba1614a65614b9b83976138e5565b866138bc565b911690520116614b78565b505060029190565b600560ff614bc183614946565b1603614c1e575060405190601f196101a0614bdc8185612e00565b600c8452013660208401375f5b60ff8116600c811015614bac578160019160ff614c13614a65614c0c83976138e5565b60026138bc565b911690520116614be9565b600660ff614c2b83614946565b1603614c88575060405190601f196101a0614c468185612e00565b600c8452013660208401375f5b60ff8116600c811015614bac578160019160ff614c7d614a65614c7683976138e5565b60036138bc565b911690520116614c53565b600760ff614c9583614946565b1603614cb8575060405190614cab602083612e00565b5f82525f36813760039190565b600860ff614cc583614946565b1603614ce8575060405190614cdb602083612e00565b5f82525f36813760049190565b600960ff614cf583614946565b1603614d18575060405190614d0b602083612e00565b5f82525f36813760059190565b600a60ff614d2583614946565b1603614d48575060405190614d3b602083612e00565b5f82525f36813760069190565b600b60ff614d5583614946565b1603614d78575060405190614d6b602083612e00565b5f82525f36813760079190565b60ff614d85600c92614946565b1614614dd1576040516334460f4160e01b815260206004820152601360248201527f496e76616c6964206265742074797065204944000000000000000000000000006044820152606490fd5b60405190614de0602083612e00565b5f82525f36813760089190565b909192831561502f5769152d02c7e14af68000008411614fea5782614e11926150be565b614e1b5750505f90565b614e2490615037565b908115614f8c57614e358282613981565b9181830403614f475761271082049161271083028381046127101484151715611f2a5703614f0257614e6790826136db565b908110614ebd576a0e79c4e6a3023e818000008111614e835790565b7f21e510be000000000000000000000000000000000000000000000000000000005f526004526a0e79c4e6a3023e8180000060245260445ffd5b60646040516334460f4160e01b815260206004820152601560248201527f546f74616c207061796f7574206f766572666c6f7700000000000000000000006044820152fd5b60646040516334460f4160e01b815260206004820152601860248201527f5061796f7574206469766973696f6e206d69736d6174636800000000000000006044820152fd5b60646040516334460f4160e01b815260206004820152601b60248201527f5061796f75742063616c63756c6174696f6e206f766572666c6f7700000000006044820152fd5b60646040517f08c379a000000000000000000000000000000000000000000000000000000000815260206004820152601260248201527f496e76616c6964206d756c7469706c69657200000000000000000000000000006044820152fd5b60646040516334460f4160e01b815260206004820152601a60248201527f42657420616d6f756e742065786365656473206d6178696d756d0000000000006044820152fd5b505050505f90565b906009821015612ef25781156150b657600182146150af57600282146150af575f906003831015806150a1575b6150985750612ef2577f6a359247000000000000000000000000000000000000000000000000000000005f5260045260245ffd5b91505061271090565b505f91506008831115615064565b614e209150565b620557309150565b919060ff8216916024831161502f5782156151b8576009821015612ef257600382146151a857600482146151925760058214615181576006821461517457506007811461515a57600814615146575f5b825160ff82169081101561502f5760ff6151298492866136b8565b51161461513e576151399061390b565b61510e565b505050600190565b601391501015806151545790565b50600190565b50600181101591508161516b575090565b60129150111590565b6001908116149392505050565b915050600191501615806151545790565b91505061519f91506151f4565b15806151545790565b9150506151b591506151f4565b90565b5090506009811015612ef2571590816151e8575b816151d5575090565b60ff91506151e2906136ab565b51161590565b805160011491506151cc565b60ff1680156152c0576040519061520a82612d7e565b6001825260036020830152600560408301526007606083015260096080830152600c60a0830152600e60c0830152601060e083015260126101008301526013610120830152601561014083015260176101608301526019610180830152601b6101a0830152601e6101c083015260206101e0830152602261020083015260246102208301525f5b60ff8116601281101561502f5760ff6152ab8492866138fa565b51161461513e576152bb9061390b565b615291565b505f9056fea26469706673582212201181502007c48e30b2cfc790e68614e274a75dfc83992b6bcd28979f77cd9eb564736f6c634300081c0033",
    "linkReferences": {}
  },
  "methodIdentifiers": {
    "BLACK_BET()": "19469f1b",
    "BURNER_ROLE()": "282c51f3",
    "COLUMN_BET_FIRST()": "b8a5e438",
    "COLUMN_BET_SECOND()": "2257b057",
    "COLUMN_BET_THIRD()": "ddebc952",
    "DENOMINATOR()": "918f8674",
    "DOZEN_BET_FIRST()": "36b39a60",
    "DOZEN_BET_SECOND()": "b34daef4",
    "DOZEN_BET_THIRD()": "d6b6cd59",
    "EVEN_BET()": "e60271cf",
    "HIGH_BET()": "7d3d31ad",
    "LOW_BET()": "94b9b507",
    "MAX_BET_AMOUNT()": "309167f5",
    "MAX_HISTORY_SIZE()": "c1066251",
    "MAX_NUMBER()": "fea9b572",
    "MAX_POSSIBLE_PAYOUT()": "4689b441",
    "MAX_TOTAL_BET_AMOUNT()": "2d2cd034",
    "MINTER_ROLE()": "d5391393",
    "ODD_BET()": "94bae385",
    "RED_BET()": "a3982227",
    "RESULT_FORCE_STOPPED()": "38f8bc6d",
    "RESULT_RECOVERED()": "57816f3e",
    "STRAIGHT_BET()": "432aeb8f",
    "canStartNewGame(address)": "5d424b85",
    "forceStopGame(address)": "b52a0855",
    "gamaToken()": "d56ec8c9",
    "getAllBetTypes()": "79023170",
    "getBetDetails(address,uint256)": "2ff21494",
    "getBetTypeInfo(uint8)": "fa198c4f",
    "getGameStatus(address)": "54e4437e",
    "getPlayerForRequest(uint256)": "04243151",
    "getPossibleWinningNumbers(uint8)": "5a0db4d2",
    "getUserBetHistory(address,uint256,uint256)": "e3286e55",
    "hasPendingRequest(address)": "0c99375d",
    "owner()": "8da5cb5b",
    "pause()": "8456cb59",
    "paused()": "5c975abb",
    "placeBet((uint8,uint8,uint256)[])": "c1a5fe51",
    "rawFulfillRandomWords(uint256,uint256[])": "1fe543e3",
    "recoverOwnStuckGame()": "a20ff9fc",
    "renounceOwnership()": "715018a6",
    "s_requests(uint256)": "a168fa89",
    "totalGamesPlayed()": "5c492129",
    "totalPayoutAmount()": "e7efcfc2",
    "totalWageredAmount()": "5bdb2e1b",
    "transferOwnership(address)": "f2fde38b",
    "unpause()": "3f4ba83a",
    "userData(address)": "c8910913"
  },
  "id": 36
}